{
  "contractName": "Splitter",
  "abi": [
    {
      "inputs": [],
      "payable": false,
      "stateMutability": "nonpayable",
      "type": "constructor"
    },
    {
      "anonymous": false,
      "inputs": [
        {
          "indexed": true,
          "name": "sender",
          "type": "address"
        },
        {
          "indexed": true,
          "name": "_payee1",
          "type": "address"
        },
        {
          "indexed": true,
          "name": "_payee2",
          "type": "address"
        },
        {
          "indexed": false,
          "name": "amount",
          "type": "uint256"
        }
      ],
      "name": "LogSplitTransfer",
      "type": "event"
    },
    {
      "constant": false,
      "inputs": [],
      "name": "getMsgSender",
      "outputs": [
        {
          "name": "",
          "type": "uint256"
        }
      ],
      "payable": true,
      "stateMutability": "payable",
      "type": "function"
    },
    {
      "constant": false,
      "inputs": [
        {
          "name": "_payee1",
          "type": "address"
        },
        {
          "name": "_payee2",
          "type": "address"
        }
      ],
      "name": "splitTransfer",
      "outputs": [
        {
          "name": "success",
          "type": "bool"
        }
      ],
      "payable": true,
      "stateMutability": "payable",
      "type": "function"
    }
  ],
  "bytecode": "0x608060405234801561001057600080fd5b5061038b806100206000396000f30060806040526004361061004c576000357c0100000000000000000000000000000000000000000000000000000000900463ffffffff1680633ab79a6f146100515780637a6ce2e1146100bf575b600080fd5b6100a5600480360381019080803573ffffffffffffffffffffffffffffffffffffffff169060200190929190803573ffffffffffffffffffffffffffffffffffffffff1690602001909291905050506100dd565b604051808215151515815260200191505060405180910390f35b6100c7610357565b6040518082815260200191505060405180910390f35b6000806000341115156100ef57600080fd5b346000803373ffffffffffffffffffffffffffffffffffffffff1673ffffffffffffffffffffffffffffffffffffffff168152602001908152602001600020541015151561013c57600080fd5b3373ffffffffffffffffffffffffffffffffffffffff168473ffffffffffffffffffffffffffffffffffffffff16141580156101a457503373ffffffffffffffffffffffffffffffffffffffff168373ffffffffffffffffffffffffffffffffffffffff1614155b15156101af57600080fd5b600073ffffffffffffffffffffffffffffffffffffffff168473ffffffffffffffffffffffffffffffffffffffff16141515156101eb57600080fd5b600073ffffffffffffffffffffffffffffffffffffffff168373ffffffffffffffffffffffffffffffffffffffff161415151561022757600080fd5b60023481151561023357fe5b049050806000808673ffffffffffffffffffffffffffffffffffffffff1673ffffffffffffffffffffffffffffffffffffffff168152602001908152602001600020600082825401925050819055508034036000808573ffffffffffffffffffffffffffffffffffffffff1673ffffffffffffffffffffffffffffffffffffffff168152602001908152602001600020600082825401925050819055508273ffffffffffffffffffffffffffffffffffffffff168473ffffffffffffffffffffffffffffffffffffffff163373ffffffffffffffffffffffffffffffffffffffff167fb5308c2ee05881d6bf177d1cf90d5a8be7ba6ea2328df9d4620c3fdc55201a17346040518082815260200191505060405180910390a4600191505092915050565b6000349050905600a165627a7a72305820c43f63dde8072a7cdcdf539e2ced2a8ea2cb42d2364cede10efe38ada5a4bd070029",
  "source": "\npragma solidity ^0.4.24;\n\ncontract Splitter  {\n    mapping (address => uint256) balanceOf;\n\n    constructor() public{\n    }\n    \n    event LogSplitTransfer(address indexed sender,  address indexed _payee1,  address indexed _payee2, uint256 amount);\n    \n    function getMsgSender() payable public returns (uint256){\n        return msg.value;\n    }\n    \n    function splitTransfer(address _payee1,  address _payee2) payable public returns (bool success) {\n\trequire(msg.value > 0);\n        require(balanceOf[msg.sender] >= msg.value);\n        require(_payee1 != msg.sender && _payee2 != msg.sender);\n        require(_payee1 != address(0));\n        require(_payee2 != address(0));\n        \n        uint halfOfTransafer = msg.value/2;\n        balanceOf[_payee1]+= halfOfTransafer;\n        balanceOf[_payee2]+= msg.value - halfOfTransafer;\n        \n        emit LogSplitTransfer(msg.sender, _payee1, _payee2, msg.value);\n        return true;\n    }\n}\n",
  "sourcePath": "/home/maryna/DAPPS/projects/splitter (копия)/contracts/Splitter.sol",
  "compiler": {
    "name": "solc",
    "version": "0.4.24+commit.e67f0147.Emscripten.clang"
  },
  "schemaVersion": "2.0.1",
  "updatedAt": "2018-12-02T21:20:13.926Z"
}